:020000040800F2
:1000000000A00020B1470008F5470008F5470008A8
:10001000F5470008F5470008F54700080000000014
:10002000000000000000000000000000B1390008DE
:10003000F547000800000000113C0008793C00086A
:10004000F5470008F5470008F5470008F5470008A0
:10005000F5470008F5470008ED120008F5470008CD
:10006000F5470008F5470008F5470008F547000880
:10007000F5470008F5470008F5470008F547000870
:10008000F5470008F5470008F5470008F547000860
:10009000F5470008F5470008F5470008F547000850
:1000A000F5470008F5470008F5470008F547000840
:1000B000F5470008F5470008F5470008F547000830
:1000C000F5470008F5470008F5470008F547000820
:1000D000F5470008F5470008F5470008F547000810
:1000E000F5470008F5470008F5470008F547000800
:1000F000F5470008F5470008F5470008F5470008F0
:10010000000000000000000000000000F5470008AB
:10011000F5470008F5470008F5470008F5470008CF
:10012000F5470008F5470008F5470008F5470008BF
:10013000F5470008F5470008000000000000000037
:10014000F5470008F5470008F547000800000000E3
:10015000000000000000000000000000000000009F
:100160000000000000000000F5470008F547000807
:10017000F54700080000000000000000000000003B
:1001800000000000F547000880B483B000AF0346CC
:10019000FB80044AFB88136000BF0C37BD465DF846
:1001A000047B70470030004080B483B000AF03464A
:1001B000FB71044AFB79536000BF0C37BD465DF804
:1001C000047B70470030004080B483B000AF03462A
:1001D000FB80044AFB88936000BF0C37BD465DF886
:1001E000047B70470030004080B400AF044B4AF6F7
:1001F000AA221A6000BFBD465DF8047B704700BFAD
:100200000030004080B400AF044B4CF6CC421A6082
:1002100000BFBD465DF8047B704700BF0030004062
:1002200080B400AF1A4A1A4B1B6843F001031360F5
:100230001749174B5A68174B13404B60144A144B1D
:100240001B6823F0847323F480331360104A104B2F
:100250001B6823F4802313600D4A0D4B5B6823F465
:10026000FE0353600A4A0A4BDB6A23F47F5323F0F0
:100270003F03D3620649064B1A6B074B13400B63CF
:10028000034B00229A6000BFBD465DF8047B7047B7
:100290000010024000C0FFF8CCFC000F80B483B017
:1002A00000AF0346FB71064B00221A70044AFB792B
:1002B000137000BF0C37BD465DF8047B704700BF6C
:1002C0000210024080B483B000AF0346FB71044AC1
:1002D000FB79136000BF0C37BD465DF8047B7047A7
:1002E0000000424280B483B000AF786039600A4AAF
:1002F000094B5B6823F4741353600748064B5A6834
:1003000079683B680B431343436000BF0C37BD461D
:100310005DF8047B704700BF0010024080B483B0DA
:1003200000AF0346FB71044AFB79136000BF0C3732
:10033000BD465DF8047B70476000424280B485B0E2
:1003400000AF78600023FB60094B5B68FB60FB68D3
:1003500023F00303FB60FA687B681343FB60044AE5
:10036000FB68536000BF1437BD465DF8047B7047DF
:100370000010024080B400AF054B5B68DBB203F0B5
:100380000C03DBB21846BD465DF8047B704700BF26
:100390000010024080B485B000AF78600023FB609D
:1003A000094B5B68FB60FB6823F0F003FB60FA68B5
:1003B0007B681343FB60044AFB68536000BF14373B
:1003C000BD465DF8047B70470010024080B485B0E4
:1003D00000AF78600023FB60094B5B68FB60FB6843
:1003E00023F4E063FB60FA687B681343FB60044A14
:1003F000FB68536000BF1437BD465DF8047B70474F
:100400000010024080B485B000AF78600023FB602C
:100410000A4B5B68FB60FB6823F46053FB607B68FE
:10042000DB00FA681343FB60044AFB68536000BFBB
:100430001437BD465DF8047B704700BF00100240D2
:1004400080B485B000AF78600023FB607B681B0F31
:10045000FB60FB68002B06D00C4A0C4BDB6A23F4D4
:100460007853D36205E0094A084BDB6A23F4F8733A
:10047000D3620649054BDA6A7B681343CB6200BF3F
:100480001437BD465DF8047B704700BF0010024082
:1004900080B483B000AF78600B46FB70FB78002B14
:1004A00006D00A49094B5A697B6813434B6106E041
:1004B0000649064B5A697B68DB4313404B6100BF1A
:1004C0000C37BD465DF8047B704700BF001002404A
:1004D00080B483B000AF78600B46FB70FB78002BD4
:1004E00006D00A49094B9A697B6813438B6106E081
:1004F0000649064B9A697B68DB4313408B6100BF5A
:100500000C37BD465DF8047B704700BF0010024009
:1005100080B483B000AF78600B46FB70FB78002B93
:1005200006D00A49094BDA697B681343CB6106E0C0
:100530000649064BDA697B68DB431340CB6100BF99
:100540000C37BD465DF8047B704700BF00100240C9
:1005500080B487B000AF0346FB710023FB6000232B
:100560007B610023FB74FB795B09DBB2FB60FB68FA
:10057000002B03D1164B1B687B6110E0FB68012B3D
:1005800003D1134B1B6A7B6109E0FB68042B03D189
:100590000F4B5B687B6102E00D4B5B6A7B61FB7913
:1005A00003F01F03FB607A69FB6822FA03F303F090
:1005B0000103002B02D00123FB7401E00023FB7434
:1005C000FB7C18461C37BD465DF8047B704700BFB6
:1005D0000010024080B485B000AF7860396000231D
:1005E000FB607B68DB68FB60FA681A4B1340FB60BA
:1005F0003B681A683B685B681A433B689B681A4310
:100600003B68DB681A433B681B691A433B685B69BC
:100610001A433B689B691343FA681343FB607B688A
:10062000FA68DA607B681B6BFB60FB6823F00F03E2
:10063000FB603B681B7F013B1A46FB681343FB6072
:100640007B68FA681A6300BF1437BD465DF8047B07
:10065000704700BF07C0FFFD80B485B000AF786071
:1006600039600023FB607B68B3F1A04F03D07B6847
:100670001C4A934207D11C4B9B68FB60FA681B4BDA
:100680001340FB6006E01A4B9B68FB60FA68174B4F
:100690001340FB603B681A683B685B681A433B6821
:1006A0009B681A433B68DB681B031A433B681B7C4F
:1006B0001B021343FA681343FB607B68B3F1A04F3E
:1006C00003D07B68074A934203D1074AFB689360D3
:1006D00002E0074AFB68936000BF1437BD465DF82F
:1006E000047B70470001005000030050E010FCFF45
:1006F0000007005080B483B000AF78600B46FB70F9
:10070000FB78002B06D07B689B6843F001027B6876
:100710009A6005E07B689B6843F002027B689A6000
:1007200000BF0C37BD465DF8047B704780B485B0D0
:1007300000AF7860084611461A460346FB700B4628
:10074000BB7013467B700023FB600023BB60BB784B
:10075000042B21D87B681B6BFB60BA7813465B00C7
:1007600013445B001A461F239340BB60BB68DB4306
:10077000FA681340FB60F978BA7813465B001344BB
:100780005B0001FA03F3BB60FA68BB681343FB60CC
:100790007B68FA681A6374E0BB78092B23D87B68FE
:1007A0005B6BFB60BB785A1F13465B0013445B0016
:1007B0001A461F239340BB60BB68DB43FA681340B3
:1007C000FB60F978BB785A1F13465B0013445B004B
:1007D00001FA03F3BB60FA68BB681343FB607B68F4
:1007E000FA685A634DE0BB780E2B25D87B689B6B6B
:1007F000FB60BB78A3F10A0213465B0013445B0065
:100800001A461F239340BB60BB68DB43FA68134062
:10081000FB60F978BB78A3F10A0213465B0013442E
:100820005B0001FA03F3BB60FA68BB681343FB602B
:100830007B68FA689A6324E07B68DB6BFB60BB78BB
:10084000A3F10F0213465B0013445B001A461F23FB
:100850009340BB60BB68DB43FA681340FB60F978E8
:10086000BB78A3F10F0213465B0013445B0001FA4F
:1008700003F3BB60FA68BB681343FB607B68FA68EC
:10088000DA63FB78092B23D97B689B69FB60FB78D3
:10089000A3F10A0213465B001344072202FA03F392
:1008A000BB607B689A69BB68DB431A407B689A61CE
:1008B0007B6899697878FB78A3F10A0213465B009C
:1008C000134400FA03F341EA03027B689A611FE0D4
:1008D0007B685B69FB60FB785A1E13465B00134420
:1008E000382202FA03F3BB607B685A69BB68DB43BA
:1008F0001A407B685A617B6859697878FA781346A0
:100900005B00134400FA03F341EA03027B685A6177
:1009100000BF1437BD465DF8047B704780B483B0D8
:1009200000AF78607B689B6843F004027B689A6044
:1009300000BF0C37BD465DF8047B704780B483B0C0
:1009400000AF78607B681B6C9BB218460C37BD46C5
:100950005DF8047B704700BF80B483B000AF78605F
:100960000B46FB70FB78002B06D07B68DB6843F0FE
:1009700001027B68DA6005E07B68DB6823F0010236
:100980007B68DA6000BF0C37BD465DF8047B7047BA
:1009900080B483B000AF786039607B68DB6823F097
:1009A00002027B68DA607B68DA683B681A437B681E
:1009B000DA6000BF0C37BD465DF8047B704700BFAE
:1009C00080B487B000AF7860396000237B6100237A
:1009D0003B610023FB6000237B617EE001227B6999
:1009E00002FA03F33B613B681A683B691340FB6002
:1009F000FA683B699A426DD13B681B79012B03D0A1
:100A00003B681B79022B36D17B689A687B695B0057
:100A1000032101FA03F3DB431A407B689A607B6889
:100A20009A683B685B7919467B695B0001FA03F3BE
:100A30001A437B689A607B689B889AB27B699BB2F9
:100A4000012101FA03F39BB2DB439BB213409AB23C
:100A50007B689A807B689B889BB21AB23B689B79C3
:100A600019467B699BB201FA03F31BB213431BB215
:100A70009AB27B689A807B681A687B695B00032165
:100A800001FA03F3DB431A407B681A607B681A683B
:100A90003B681B7919467B695B0001FA03F31A4333
:100AA0007B681A607B68DA687B699BB25B00032114
:100AB00001FA03F3DB431A407B68DA607B68DA688B
:100AC0003B68DB7919467B695B0001FA03F31A4343
:100AD0007B68DA607B6901337B617B690F2B7FF672
:100AE0007DAF00BF1C37BD465DF8047B704700BF7B
:100AF0002DE9F04FA9B002AFF861C64B1C4607F1D3
:100B0000580604F1300E35462346186859689A682D
:100B1000DB680FC5103410367445F4D132462346D5
:100B20001B881380BC4B1C4607F1240604F1300ED1
:100B300035462346186859689A68DB680FC5103433
:100B400010367445F4D1324623461B8813800023A7
:100B5000C7F8943050E0D7F894302C33AF4A32F8CD
:100B600013301A46AE4B1B681344C7F89030D7F8C1
:100B700094302C33AB4A32F813301A46AA4B1B6818
:100B80001344C7F88C30D7F89030002B03DC0023D7
:100B9000C7F8903008E0D7F89030B3F57A6F03DBF0
:100BA0004FF47A63C7F89030D7F88C30002B03DC11
:100BB0000023C7F88C3008E0D7F88C30B3F57A6F93
:100BC00003DB4FF47A63C7F88C30D7F894302C33BA
:100BD000D7F8902091B2914A22F81310D7F89430A8
:100BE0002C33D7F88C2091B28E4A22F81310D7F804
:100BF00094300133C7F89430D7F89430182BAADD1D
:100C0000864BB3F88030B3F57A6FC0F03E81854BE8
:100C1000B3F86C301A46834B5B8CC83B9A42CCBF0E
:100C200001230023DAB27F4BB3F86C3019467D4BB9
:100C30005B8EC8339942B4BF01230023DBB213405B
:100C4000DBB2002B63D004F059FF0246774B83FBE5
:100C500002131911D317CB1A322101FB03F3D31A54
:100C6000193B734A13606E4B1B68002B07DB704BFC
:100C70001A686FF063039B1A694A136008E0684BB7
:100C80001B68002B04DA6A4B1B686433644A1360E8
:100C9000654B1B68002B1EDC614B1B68604A1268A9
:100CA00002FB03F3C3F59C432033184604F0F0FA2B
:100CB00003460C4644EC103B04F066F854EC103B41
:100CC000984684F000494046494604F0F7FD024644
:100CD000554B1A60D9E0524B1B68514A126802FB0F
:100CE00003F3C3F59C432033184604F0D1FA0346BE
:100CF0000C4644EC103B04F047F854EC103B18460B
:100D0000214604F0DBFD0246474B1A60BDE0494B2B
:100D100018680023009300230022082100F03CFE05
:100D20004FF47A7001F0C0FA0023C7F8943022E043
:100D3000D7F8943003F12C02D7F894305B0007F118
:100D400098010B4433F8401C344B23F81210D7F8A9
:100D5000943003F12C02D7F894305B0007F198012E
:100D60000B4433F8741C2F4B23F81210D7F894302F
:100D70000133C7F89430D7F89430182BD8DD2E4BB8
:100D80009B88184604F0B0FE0246284B83FB0213F2
:100D90001911D317CB1A322101FB03F3D31A193BD4
:100DA000234A1360224B1B681F4A136004F0A6FEFF
:100DB00002461E4B83FB02131911D317CB1A3221A3
:100DC00001FB03F3D31A193B194A1360184B1B6834
:100DD000002B33DD144B1B68134A126802FB03F32C
:100DE000C3F59C630233184604F052FA03460C46DE
:100DF00044EC103B03F0C8FF54EC103B3B6184F023
:100E000000437B61D7E9040104F058FD0246044B1E
:100E10001A602EE03C5B0008705B00082400002094
:100E20000000002008010020040000201F85EB5175
:100E3000884300208443002044440020994B1B68D1
:100E4000984A126802FB03F3C3F59C630233184609
:100E500004F01EFA03460C4644EC103B03F094FFEA
:100E600054EC103B1846214604F028FD02468E4BF8
:100E70001A608E4B1C6801F0B3FB024600230093FE
:100E800000230621204600F087FD894BB3F8583037
:100E9000002B40F03E81874BB3F86C301A46854BEF
:100EA000B3F8CE30C83B9A42CCBF01230023DAB25C
:100EB000804BB3F86C3019467E4BB3F8E030C83342
:100EC0009942B4BF01230023DBB21340DBB2002BF5
:100ED00064D004F013FE0246774B83FB0213191112
:100EE000D317CB1A322101FB03F3D31A193B734AF0
:100EF00013606D4B1B68002B07DB704B1A686FF09B
:100F000063039B1A684A136008E0674B1B68002B59
:100F100004DA6A4B1B686433634A1360614B1B68D5
:100F2000002B1FDC604B1B685F4A126802FB03F357
:100F3000C3F59C432033184604F0AAF903460C4637
:100F400044EC103B03F020FF54EC103BBB6084F0FA
:100F50000043FB60D7E9020104F0B0FC0246514BAC
:100F60001A60D6E0504B1B684F4A126802FB03F32D
:100F7000C3F59C432033184604F08AF903460C4617
:100F800044EC103B03F000FF54EC103B18462146A4
:100F900004F094FC0246434B1A60BAE0434B1868D5
:100FA0000023009300230022082100F0F5FC4FF4F9
:100FB0007A7001F079F90023C7F8943022E0D7F86D
:100FC000943003F12C02D7F894305B0007F19801BC
:100FD0000B4433F8401C364B23F81210D7F89430EA
:100FE00003F12C02D7F894305B0007F198010B4411
:100FF00033F8741C2F4B23F81210D7F894300133B8
:10100000C7F89430D7F89430182BD8DD2C4B9B8838
:10101000184604F069FD0246274B83FB02131911A1
:10102000D317CB1A322101FB03F3D31A193B234AFE
:101030001360224B1B681B4A136004F05FFD0246DD
:101040001D4B83FB02131911D317CB1A322101FB5D
:1010500003F3D31A193B194A1360184B1B68002B72
:1010600030DD104B1B680F4A126802FB03F3C3F517
:101070009C630233184604F00BF903460C4644EC1B
:10108000103B03F081FE54EC103B3B6084F00043C6
:101090007B60D7E9000104F011FC0246024B1A60A4
:1010A0002BE000BF0400002000000020844300204B
:1010B00024000020080100201F85EB5188430020F8
:1010C00044440020524B1B68514A126802FB03F350
:1010D000C3F59C630233184604F0DAF803460C4665
:1010E00044EC103B03F050FE54EC103B18462146F4
:1010F00004F0E4FB0246474B1A60474B1C6801F0C2
:101100006FFA02460023009300230621204600F0D8
:1011100043FC424BB3F8803040F69F7293428CBF41
:1011200001230023DAB23D4BB3F85830002B0CBF3B
:1011300001230023DBB21343DBB2002B62D004F0A7
:10114000DDFC0246364B83FB02131911D317CB1A71
:10115000322101FB03F3D31A193B324A13602C4BA3
:101160001B68002B07DB2F4B1A686FF063039B1A79
:10117000274A136008E0264B1B68002B04DA294B32
:101180001B686433224A1360224B1B68002B1EDC51
:101190001F4B1B681E4A126802FB03F3C3F59C43F6
:1011A0002033184604F074F803460C4644EC103B18
:1011B00003F0EAFD54EC103B9A4684F0004B504695
:1011C000594604F07BFB0246124B1A601AE0104BA2
:1011D0001B680F4A126802FB03F3C3F59C432033DC
:1011E000184604F055F803460C4644EC103B03F057
:1011F000CBFD54EC103B1846214604F05FFB024641
:10120000044B1A6000BF9C37BD46BDE8F08F00BF9D
:10121000040000200000002084430020080100207A
:101220001F85EB518843002080B584B000AF0121B9
:101230000120FFF76DF93B1D184602F095FA4FF4B7
:101240006173BB600123BB800123BB810023FB8052
:101250003B1D19464FF0804002F00EFA20214FF05E
:10126000804002F0BBFA01214FF0804002F096FA74
:1012700000BF1037BD4680BD80B584B000AF1C23D1
:101280003B7300237B730023BB730123FB7307F1C4
:101290000C03184602F08CF901210120FFF718F920
:1012A0000021002003F0A8FA00237B6000233B729A
:1012B00008237B720123BB723B1D184601F000FF1F
:1012C0004FF4407002F060F906233B7305237B73F3
:1012D0000023BB730123FB7307F10C03184602F0D4
:1012E00067F900BF1037BD4680BD00BF90B583B021
:1012F00002AF154B1B88002B0FD1144B1C6801F05B
:101300006FF902460023009300230621204600F0D7
:1013100043FB0D4B01221A800FE00B4B1B88012B66
:101320000BD10A4B186800230093002300220821E8
:1013300000F032FB044B00221A80002001F0BCFFB9
:1013400000BF0437BD4690BD240600208443002022
:10135000F0B593B000AF7860264B1C4607F10C0641
:1013600004F1300E35462346186859689A68DB68E0
:101370000FC5103410367445F4D133462246106838
:10138000186092889A80002387F847301A4B1B8890
:101390001A4652001344A7F84430B7F8443040F6D8
:1013A000E34293421CD940F6E443A7F8443017E0E7
:1013B00097F8473003F1110297F847305B0007F1C7
:1013C00048010B4433F83C1CB7F844300B4499B245
:1013D0000A4B23F8121097F84730013387F847304B
:1013E00097F847301A2BE3D9002387F84730FEF7E8
:1013F000FBFEB1E7A45B0008444400200801002084
:10140000F0B593B000AF7860254B1C4607F10C0691
:1014100004F1300E35462346186859689A68DB682F
:101420000FC5103410367445F4D133462246106887
:10143000186092889A80002387F84730194B5B88A0
:101440001A4652001344A7F8443021E0B7F844305C
:1014500040F6E342934203D940F6E443A7F8443010
:1014600097F8473003F1560297F847305B0007F1D1
:1014700048010B4433F83C1CB7F844300B4499B294
:10148000094B23F8121097F84730013387F847309B
:1014900097F847301A2BD9D9002387F84730B3E79C
:1014A000A45B00084444002008010020B0B582B0CD
:1014B00002AF03F025FC00F009FD03F0DFF900F0B6
:1014C0005BFD02F0A5F9FFF7AFFEFFF7D5FE4A4B33
:1014D0000093002301221121484800F003FA02463C
:1014E000474B1A60002301930023009300234FF41D
:1014F00080724449444800F06FFD002301930023AB
:10150000009300234FF480724049414800F064FD8D
:10151000404B9B88184604F0E7FA02463E4B83FB9B
:1015200002131911D317CB1A322101FB03F3D31A7B
:10153000193B3A4A1360394B1B68394A136004F06F
:10154000DDFA0246344B83FB02131911D317CB1A71
:10155000322101FB03F3D31A193B304A13602F4B9E
:101560001B68002B1EDD2E4B1B682D4A126802FBE8
:1015700003F3C3F59C630233184603F089FE024669
:101580000B4643EC102B03F0FFFB53EC102B1446DF
:1015900083F000452046294604F090F90246214B8D
:1015A0001A601AE01E4B1B681D4A126802FB03F307
:1015B000C3F59C630233184603F06AFE03460C46EB
:1015C00044EC103B03F0E0FB54EC103B1846214682
:1015D00004F074F90246134B1A60094B1868002393
:1015E000009300230022032100F0D6F903F0B8FB9A
:1015F00000F08EFEFEE700BFF10A0008DC5B000889
:1016000084430020E05B000851130008E85B0008F9
:1016100001140008444400201F85EB51884300203A
:10162000040000200000002080B400AFFEE700BFEF
:1016300080B483B000AF78603960FEE780B400AF5B
:1016400000BFBD465DF8047B704700BF80B483B027
:1016500000AF78607B681A684FF6FE7313407A68B3
:1016600013607B6800221A607B6800225A607B68E6
:1016700000229A607B680022DA607B68434A9342CA
:1016800006D1434A424B5B6843F00F03536077E057
:101690007B68404A934206D13D4A3D4B5B6843F02C
:1016A000F00353606CE07B683B4A934206D1384AB2
:1016B000374B5B6843F47063536061E07B68374A83
:1016C000934206D1324A324B5B6843F47043536015
:1016D00056E07B68324A934206D12D4A2C4B5B6818
:1016E00043F4702353604BE07B682E4A934206D14B
:1016F000274A274B5B6843F47003536040E07B68E4
:10170000294A934206D1224A214B5B6843F0706319
:10171000536035E07B68254A934206D1244A244B26
:101720005B6843F00F0353602AE07B68214A9342D1
:1017300006D11F4A1E4B5B6843F0F00353601FE065
:101740007B681D4A934206D1194A194B5B6843F4E2
:101750007063536014E07B68184A934206D1144AC0
:10176000134B5B6843F47043536009E07B68144A91
:10177000934205D10E4A0E4B5B6843F470235360CD
:1017800000BF0C37BD465DF8047B7047080002407F
:10179000000002401C0002403000024044000240B1
:1017A000580002406C0002408000024008040240E1
:1017B000000402401C040240300402404404024081
:1017C0005804024080B485B000AF786039600023CF
:1017D000FB607B681B68FB60FB6823F4FF4323F01E
:1017E0007003FB603B689A683B681B6A1A433B685E
:1017F0001B691A433B685B691A433B689B691A4340
:101800003B68DB691A433B685B6A1A433B689B6A27
:101810001343FA681343FB607B68FA681A603B68FD
:101820009B891A467B685A603B681A687B689A6095
:101830003B685A687B68DA6000BF1437BD465DF8C4
:10184000047B704780B483B000AF78600B46FB70B8
:10185000FB78002B06D07B681B6843F001027B6895
:101860001A6006E07B681A684FF6FE7313407A68C8
:10187000136000BF0C37BD465DF8047B704700BFA6
:1018800080B584B002AF00237B6000F0E9FA114B11
:101890001B68002B0BD0104B0193042300930023F3
:1018A0004FF480720D490E4800F096FB78607B681B
:1018B000002B09D14FF0500383F31188BFF36F8FD2
:1018C000BFF34F8F3B60FEE77B6818460837BD4685
:1018D00080BD00BF580600205C060020F05B0008B9
:1018E000D11A000880B588B002AFF860B9607A609C
:1018F0003B602C2003F050F878617B69002B0DD001
:101900007B69002283F828207B6901933B6A00935E
:101910003B687A68B968F86800F006F87B69184691
:101920001837BD4680BD00BF80B586B000AFF860F7
:10193000B9607A603B60BB68002B09D14FF050035F
:1019400083F31188BFF36F8FBFF34F8F7B61FEE787
:1019500000F086FA7B6AFA681A607B6ABA689A6154
:101960007B6A3A68DA617B6A3A6A1A627B6A043394
:10197000184601F097FD7B68002B08D07B6A93F82E
:10198000283043F00403DAB27B6A83F8282000BFD2
:101990001837BD4680BD00BF80B58AB000AFF86083
:1019A000B9607A603B6000237B62FB68002B09D141
:1019B0004FF0500383F31188BFF36F8FBFF34F8F46
:1019C0003B62FEE7194B1B68002B2AD0BB687B618A
:1019D0007B68BB61FB68FB61BB68052B18DC01F011
:1019E0002FFA0346022B09D1104B186807F1140196
:1019F00000233A6B02F0C6FA786212E00B4B1868CB
:101A000007F114010023002202F0BCFA786208E01A
:101A1000064B186807F1140100233A6802F0ACFB8A
:101A200078627B6A18462837BD4680BD580600207C
:101A300080B584B000AFF860B9607A6008E0FB68F8
:101A40009B69BA681344BB60FB681B6AF8689847D7
:101A5000FB689A69BB68D118BB687A68F86800F0BF
:101A6000DBF80346002BEAD100BF1037BD4680BD2E
:101A700080B584B000AF78603960144B1B68DB68B8
:101A8000DB68FB60FB680433184601F053FDFB681C
:101A900093F8283003F00403002B05D03A687968E6
:101AA000F868FFF7C5FF08E0FB6893F8283023F0DB
:101AB0000103DAB2FB6883F82820FB681B6AF86828
:101AC000984700BF1037BD4680BD00BF50060020BC
:101AD00080B584B000AF786007F10803184600F0C5
:101AE00057F8F860BB681946F86800F003F800F092
:101AF000D5F8F1E780B584B000AF7860396000F0C8
:101B000057FC07F10803184600F066F8F860BB6858
:101B1000002B30D13B68002B0AD17A68FB689A42CF
:101B200006D800F053FCF9687868FFF7A1FF24E0BD
:101B30003B68002B08D0134B1B681B68002B01D19E
:101B4000012300E000233B600F4B18687A68FB68B4
:101B5000D31A3A68194602F0F7FD00F037FC034645
:101B6000002B0AD1094B4FF080521A60BFF34F8F00
:101B7000BFF36F8F01E000F029FC00BF1037BD46B6
:101B800080BD00BF540600205806002004ED00E090
:101B900080B485B000AF78600E4B1B681B68002BCB
:101BA00001D1012200E000227B681A607B681B687B
:101BB000002B05D1074B1B68DB681B68FB6001E04D
:101BC0000023FB60FB6818461437BD465DF8047BB4
:101BD000704700BF5006002080B584B000AF786029
:101BE00000F0EEFCF8600B4B1B68FA689A4205D2D5
:101BF00000F010F97B6801221A6002E07B68002285
:101C00001A60044AFB681360FB6818461037BD462B
:101C100080BD00BF6006002080B586B000AFF860D0
:101C2000B9607A603B6000237B61FB68BA685A60E8
:101C3000FB68FA681A61BA687B689A4212D87A68B7
:101C40003B68D21AFB689B699A4202D301237B61ED
:101C50001BE0104B1A68FB6804331946104601F06C
:101C60002FFC12E07A683B689A4206D2BA683B6859
:101C70009A4202D301237B6107E0074B1A68FB6895
:101C800004331946104601F01BFC7B6918461837CF
:101C9000BD4680BD540600205006002080B588B0A7
:101CA00000AFA5E0BB68002BC0F2A2803B69FB61DE
:101CB000FB695B69002B04D0FB690433184601F013
:101CC00039FC3B1D1846FFF787FFB861BB68013B35
:101CD000082B00F28C8001A252F823F0011D0008AD
:101CE000011D0008691D00087D1D0008C51D0008B4
:101CF000011D0008011D0008691D00087D1D000868
:101D0000FB6993F8283043F00103DAB2FB6983F8EA
:101D10002820FA68FB699B69D118FB68BA69F869E1
:101D2000FFF77AFF0346002B62D0FB6993F8283057
:101D300003F00403002B09D0FA68FB699B69134484
:101D4000BA691946F869FFF773FE08E0FB6993F872
:101D5000283023F00103DAB2FB6983F82820FB69FD
:101D60001B6AF869984743E0FB6993F8283023F031
:101D70000103DAB2FB6983F8282039E0FB6993F8A4
:101D8000283043F00103DAB2FB6983F82820FA68AF
:101D9000FB699A61FB699B69002B09D14FF05003E5
:101DA00083F31188BFF36F8FBFF34F8F7B61FEE723
:101DB000FB699A69BB69D118BB69BA69F869FFF711
:101DC0002BFF15E0FB6993F8283003F00203002B8A
:101DD00003D1F86902F084FE0AE0FB6993F8283029
:101DE00023F00103DAB2FB6983F8282000E000BF8A
:101DF000074B1B6807F108010022184602F06AFA37
:101E00000346002B7FF44EAF00BF2037BD4680BD98
:101E10005806002080B582B000AF09E00E4B1B6869
:101E2000DB681B687B604FF0FF317868FFF720FEAE
:101E3000094B1B681B68002BF0D1074B1B683B60EC
:101E4000064B1B68044A1360044A3B68136000BFDA
:101E50000837BD4680BD00BF500600205406002054
:101E600080B500AF01F07CFE124B1B68002B1DD12A
:101E7000114801F0F7FA114801F0F4FA104B0E4A3C
:101E80001A60104B0D4A1A6000220C210A2002F041
:101E90000BF80246074B1A60064B1B68002B05D057
:101EA000044B1B680849184602F000FC01F086FE4E
:101EB00000BF80BD58060020280600203C060020F8
:101EC0005006002054060020F85B000880B500AFE3
:101ED00001214FF40030FEF7DBFA01214FF400102E
:101EE000FEF7D6FA224B01221A71214B0022DA7139
:101EF0001F4B4FF47F421A601D4B03225A711C493D
:101F00001C48FEF75DFD1A4B03221A71184B002284
:101F1000DA71174B30221A60154B03225A7114499B
:101F20004FF09040FEF74CFD114B03221A71104BFD
:101F30000022DA710E4B0E221A600D4B03225A71E9
:101F40000B494FF09040FEF73BFD094B01221A6010
:101F5000074B03225A71064B00221A71044B0222CE
:101F6000DA7103494FF09040FEF72AFD00BF80BDB3
:101F7000BC4300200010004880B500AF01214FF0A5
:101F80000050FEF7C5FA134B24221A60114B0022B1
:101F90005A60104B4FF400729A600E4B0222DA60C6
:101FA0000C49002002F02AFE0121002002F05AFE16
:101FB0000121002002F07CFE0649102002F01EFEE6
:101FC0000121102002F04EFE0121102002F070FECF
:101FD00000BF80BDAC43002080B58CB004AFF8607A
:101FE000B9603B601346FB80FB889B00184602F0FB
:101FF000D3FC78617B69002B13D0582002F0CCFC15
:10200000F861FB69002B08D058220021F86903F021
:102010001DFDFB697A691A6305E0786902F060FDCD
:1020200001E00023FB61FB69002B13D0FA88002339
:102030000393FB690293FB6A0193BB6A00933B68BD
:10204000B968F86800F00EF8F86900F097F8012315
:10205000BB6102E04FF0FF33BB61BB69184620371C
:10206000BD4680BD80B588B000AFF860B9607A60C9
:102070003B603B6B186B7B689B001A46A52103F005
:10208000E5FC3B6B1A6B7B6803F18043013B9B00D3
:102090001344BB61BB6923F00703BB61BB6903F059
:1020A0000703002B09D04FF0500383F31188BFF3CF
:1020B0006F8FBFF34F8F3B61FEE7BB68002B1ED0D5
:1020C0000023FB6112E0BA68FB69134419783A6B8C
:1020D000FB69134434330A461A70BA68FB69134427
:1020E0001B78002B06D0FB690133FB61FB69092BD0
:1020F000E9D900E000BF3B6B002283F83D20BB6ABA
:10210000042B09D94FF0500383F31188BFF36F8F6D
:10211000BFF34F8F7B61FEE7BB6A042B01D9042319
:10212000BB623B6BBA6ADA623B6BBA6A9A643B6B1E
:102130000433184601F0B6F93B6B1833184601F02A
:10214000B1F93B6B3A6B1A61BB6AC3F105023B6B99
:102150009A613B6B3A6B5A623A68F968B86901F068
:10216000C7FB02463B6B1A60FB6A002B02D0FB6A7E
:102170003A6B1A6000BF2037BD4680BD80B584B081
:1021800000AF786001F0ECFC404B1B6801333F4A24
:1021900013603F4B1B68002B09D13D4A7B681360DD
:1021A0003A4B1B68012B10D100F0B2FD0DE0394B0A
:1021B0001B68002B09D1364B1B68DA6A7B68DB6A27
:1021C0009A4202D8324A7B681360334B1B68013352
:1021D000314A1360304B1A687B681A647B68DB6A8B
:1021E00001229A402D4B1B6813432C4A13607B68D5
:1021F000DA6A2B4913469B0013449B000B440433BB
:102200001B68FB607B68FA689A60FB689A687B6869
:10221000DA60FB689B687A6804325A607B681A1D32
:10222000FB689A607B68DA6A13469B0013449B0044
:102230001B4A1A447B685A617B68DA6A184913465C
:102240009B0013449B000B441B68591C1448134605
:102250009B0013449B000344196001F0AFFC0D4B3D
:102260001B68002B0ED00A4B1B68DA6A7B68DB6A9E
:102270009A4207D20B4B4FF080521A60BFF34F8F38
:10228000BFF36F8F00BF1037BD4680BD3C070020F5
:10229000640600204807002058070020440700205B
:1022A0006806002004ED00E080B584B000AF7860DF
:1022B0000023FB607B68002B16D0134B1B68002BA0
:1022C00009D04FF0500383F31188BFF36F8FBFF332
:1022D0004F8FBB60FEE700F06BF80021786800F0DC
:1022E0006FFE00F073F8F860FB68002B07D1074B16
:1022F0004FF080521A60BFF34F8FBFF36F8F00BF54
:102300001037BD4680BD00BF6407002004ED00E02B
:1023100080B586B002AF1F4B0193002300930023CA
:102320004FF480721C491D48FFF756FEF860FB68A9
:10233000012B02D1FFF7A4FAF860FB68012B15D13D
:102340004FF0500383F31188BFF36F8FBFF34F8FAC
:102350007B60134B4FF0FF321A60124B01221A6060
:10236000114B00221A6001F04DFB0DE0FB68B3F148
:10237000FF3F09D14FF0500383F31188BFF36F8FF4
:10238000BFF34F8FBB60FEE7084B1B6800BF1037E1
:10239000BD4680BD60070020005C0008E12C0008FD
:1023A0005C070020480700204007002008000020AC
:1023B00080B400AF044B1B680133034A136000BFB5
:1023C000BD465DF8047B70476407002080B588B087
:1023D00000AF0023FB610023BB61704B1B68002B27
:1023E00009D14FF0500383F31188BFF36F8FBFF310
:1023F0004F8F7B60FEE701F0B3FB684B1B68013B2E
:10240000664A1360654B1B68002B40F0C080644B2C
:102410001B68002B00F0BB808AE0624BDB68DB6846
:10242000FB61FB699B6A3B61FB69DB69FA69126AC4
:102430009A60FB691B6AFA69D2695A603B695A68FB
:10244000FB6918339A4203D1FB691A6A3B695A60E7
:10245000FB6900229A623B691B685A1E3B691A603D
:10246000FB695B69FB60FB699B68FA69D2689A60EB
:10247000FB69DB68FA6992685A60FB685A68FB6915
:1024800004339A4203D1FB69DA68FB685A60FB693E
:1024900000225A61FB681B685A1EFB681A60FB69C0
:1024A000DB6A01229A40404B1B6813433E4A13608B
:1024B000FB69DA6A3D4913469B0013449B000B44B9
:1024C00004331B68BB60FB69BA689A60BB689A6892
:1024D000FB69DA60BB689B68FA6904325A60FB6981
:1024E0001A1DBB689A60FB69DA6A13469B001344A5
:1024F0009B002E4A1A44FB695A61FB69DA6A2B4930
:1025000013469B0013449B000B441B68591C27482F
:1025100013469B0013449B0003441960FB69DA6A6D
:10252000234B1B68DB6A9A4202D3224B01221A60BA
:102530001C4B1B68002B7FF470AFFB69002B01D094
:1025400000F062FC1C4B1B687B617B69002B10D088
:1025500000F064F80346002B02D0164B01221A60EB
:102560007B69013B7B617B69002BF1D1124B00221F
:102570001A60104B1B68002B09D00123BB610F4B65
:102580004FF080521A60BFF34F8FBFF36F8F01F08F
:1025900015FBBB6918462037BD4680BD6407002087
:1025A0003C070020FC0600204407002068060020AD
:1025B00064060020500700204C07002004ED00E0D6
:1025C00080B483B000AF054B1B687B607B68184606
:1025D0000C37BD465DF8047B704700BF4007002004
:1025E00080B582B000AF01F097FB00237B60044B05
:1025F0001B683B603B6818460837BD4680BD00BF7E
:102600004007002080B400AF034B1B681846BD464E
:102610005DF8047B704700BF3C07002080B58AB09E
:1026200000AF00237B62814B1B68002B40F0F180E0
:102630007F4B1B6801333B627D4A3B6A13603B6AF8
:10264000002B1FD17B4B1B681B68002B09D04FF060
:10265000500383F31188BFF36F8FBFF34F8F7B60FD
:10266000FEE7744B1B68FB61734B1B68714A136078
:10267000714AFB691360714B1B6801336F4A136029
:1026800000F0C2FB6E4B1B683A6A9A42C0F0A6800B
:10269000684B1B681B68002B04D1694B4FF0FF325D
:1026A0001A609BE0634B1B68DB68DB68BB61BB693E
:1026B0005B687B613A6A7B699A4203D2604A7B69B4
:1026C00013608BE0BB695B693B61BB699B68BA695E
:1026D000D2689A60BB69DB68BA6992685A603B69E4
:1026E0005A68BB6904339A4203D1BB69DA683B6913
:1026F0005A60BB6900225A613B691B685A1E3B69DC
:102700001A60BB699B6A002B1ED0BB699B6AFB6089
:10271000BB69DB69BA69126A9A60BB691B6ABA69EC
:10272000D2695A60FB685A68BB6918339A4203D170
:10273000BB691A6AFB685A60BB6900229A62FB682F
:102740001B685A1EFB681A60BB69DB6A01229A404B
:102750003C4B1B6813433B4A1360BB69DA6A3A4936
:1027600013469B0013449B000B4404331B68BB605F
:10277000BB69BA689A60BB689A68BB69DA60BB6873
:102780009B68BA6904325A60BB691A1DBB689A60BB
:10279000BB69DA6A13469B0013449B002A4A1A4419
:1027A000BB695A61BB69DA6A274913469B00134427
:1027B0009B000B441B68591C234813469B00134481
:1027C0009B0003441960BB69DA6A204B1B68DB6A13
:1027D0009A427FF65DAF01237B6259E71B4B1B6872
:1027E000DA6A194913469B0013449B000B441B688B
:1027F000012B01D901237B62154B1B68002B01D1F2
:10280000FEF71CFF134B1B68002B09D001237B62D2
:1028100006E00F4B1B6801330D4A1360FEF70EFFF5
:102820007B6A18462837BD4680BD00BF640700207C
:1028300040070020F4060020F8060020540700207E
:102840005C07002044070020680600206406002082
:102850004C0700205007002080B588B000AF394BEE
:102860001B68002B03D0384B01221A6065E0364B01
:1028700000221A60354B1B681B6BFB614FF0A533C0
:10288000BB61FB691A68BB699A4211D1FB690433C9
:102890001A68BB699A420BD1FB6908331A68BB6995
:1028A0009A4205D1FB690C331A68BB699A4208D079
:1028B000264B1A68254B1B68343319461046FEF721
:1028C000B7FE234B1B68BB60BB68B3FA83F3FB7195
:1028D000FB79C3F11F033B611E493A6913469B0014
:1028E00013449B000B441B68002B09D14FF050038D
:1028F00083F31188BFF36F8FBFF34F8F7B61FEE7C8
:102900003A6913469B0013449B00124A1344FB6030
:10291000FB685B685A68FB685A60FB685A68FB682A
:1029200008339A4204D1FB685B685A68FB685A60B6
:10293000FB685B68DB68054A136000BF2037BD4653
:1029400080BD00BF640700205007002064060020FF
:10295000440700206806002080B584B000AF78608E
:1029600039607B68002B09D14FF0500383F3118845
:10297000BFF36F8FBFF34F8FFB60FEE7074B1B6802
:1029800018331946786800F09BFD0121386800F083
:1029900017FB00BF1037BD4680BD00BF6406002096
:1029A00080B586B000AFF860B9607A60FB68002B34
:1029B00009D14FF0500383F31188BFF36F8FBFF33A
:1029C0004F8F3B61FEE7FB685B687B61154B1B68C3
:1029D0007A69DA61134B1B687A6992681A627B69BB
:1029E0009B68104A126818325A600E4B1B6803F13C
:1029F00018027B699A600B4B1B68FA689A62FB6845
:102A00001B685A1CFB681A607B68002B02D04FF0D1
:102A1000FF33BB607968B86800F0D2FA00BF18379E
:102A2000BD4680BD6406002080B48BB000AF7860E6
:102A30007B68DB68DB683B623B6A002B09D14FF0A7
:102A4000500383F31188BFF36F8FBFF34F8FFB6089
:102A5000FEE73B6A9B6AFB613B6ADB693A6A126A82
:102A60009A603B6A1B6A3A6AD2695A60FB695A6883
:102A70003B6A18339A4203D13B6A1A6AFB695A606F
:102A80003B6A00229A62FB691B685A1EFB691A6046
:102A90004A4B1B68002B5ED13B6A5B69BB613B6A9A
:102AA0009B683A6AD2689A603B6ADB683A6A9268C5
:102AB0005A60BB695A683B6A04339A4203D13B6A45
:102AC000DA68BB695A603B6A00225A61BB691B68BD
:102AD0005A1EBB691A603B6ADB6A01229A40384B76
:102AE0001B681343364A13603B6ADA6A354913465A
:102AF0009B0013449B000B4404331B687B613B6ABF
:102B00007A699A607B699A683B6ADA607B699B683C
:102B10003A6A04325A603B6A1A1D7B699A603B6AC2
:102B2000DA6A13469B0013449B00264A1A443B6A08
:102B30005A613B6ADA6A234913469B0013449B009F
:102B40000B441B68591C1F4813469B0013449B00F1
:102B5000034419601BE01C4B5B683B613B6A3A69AC
:102B6000DA613B699A683B6A1A623B699B683A6A18
:102B700018325A603B6A03F118023B699A603B6A5B
:102B8000114A9A62104B1B6801330F4A13603B6A6B
:102B9000DA6A0E4B1B68DB6A9A4205D901237B6215
:102BA0000B4B01221A6001E000237B627B6A18460E
:102BB0002C37BD465DF8047B704700BF64070020DA
:102BC0004407002068060020FC0600206406002060
:102BD0005007002080B483B000AF7860064B1A68BD
:102BE0007B681A60054B1A687B685A6000BF0C3717
:102BF000BD465DF8047B7047540700204007002065
:102C000080B588B000AF786039607B68002B09D14F
:102C10004FF0500383F31188BFF36F8FBFF34F8FD3
:102C2000FB60FEE73B68002B09D14FF0500383F3B4
:102C30001188BFF36F8FBFF34F8F3B61FEE700F04A
:102C40008FFF1F4B1B68BB617B685B68BA69D31A37
:102C50007B613B681B68B3F1FF3F02D10023FB613E
:102C600026E07B681A68174B1B689A420AD07B687B
:102C70005A68BB699A4205D80123FB613B68002270
:102C80001A6015E03B681A687B699A420BD93B6869
:102C90001A687B69D21A3B681A607868FFF79AFF56
:102CA0000023FB6104E03B6800221A600123FB6102
:102CB00000F084FFFB6918462037BD4680BD00BF89
:102CC000400700205407002080B400AF034B0122CE
:102CD0001A6000BFBD465DF8047B704750070020B6
:102CE00080B582B000AF786000F052F8064B1B68E8
:102CF000012BF9D9054B4FF080521A60BFF34F8F6B
:102D0000BFF36F8FF0E700BF6806002004ED00E01E
:102D100080B582B000AF00237B600CE07A68134678
:102D20009B0013449B00124A1344184600F09AFB80
:102D30007B6801337B607B68042BEFD90D4800F082
:102D400091FB0D4800F08EFB0C4800F08BFB0C480B
:102D500000F088FB0B4800F085FB0B4B054A1A601E
:102D60000A4B054A1A6000BF0837BD4680BD00BF48
:102D700068060020CC060020E0060020FC060020AB
:102D80001007002028070020F4060020F806002085
:102D900080B582B000AF19E000F0E2FE0F4BDB68B7
:102DA000DB687B607B680433184600F0C3FB0C4B88
:102DB0001B68013B0A4A13600A4B1B68013B094A26
:102DC000136000F0FBFE786800F00EF8054B1B68FE
:102DD000002BE1D100BF0837BD4680BD10070020A1
:102DE0003C0700202407002080B582B000AF786047
:102DF0007B681B6B184601F073FE786801F070FE6B
:102E000000BF0837BD4680BD80B400AF0A4B1B68C9
:102E10001B68002B04D1094B4FF0FF321A6005E00C
:102E2000054B1B68DB681B68044A136000BFBD4686
:102E30005DF8047B704700BFF40600205C070020AB
:102E400080B483B000AF0B4B1B68002B02D1012371
:102E50007B6008E0084B1B68002B02D102237B60DB
:102E600001E000237B607B6818460C37BD465DF8A7
:102E7000047B7047480700206407002080B588B0B5
:102E800000AF78607B68BB610023FB617B68002B2F
:102E900000F08A80474B1B68BA699A4209D04FF00C
:102EA000500383F31188BFF36F8FBFF34F8FFB6025
:102EB000FEE7BB69DB6C002B09D14FF0500383F3B5
:102EC0001188BFF36F8FBFF34F8F3B61FEE7BB6984
:102ED000DB6C5A1EBB69DA64BB69DA6ABB699B6C3E
:102EE0009A4261D0BB69DB6C002B5DD1BB690433B6
:102EF000184600F01FFB0346002B0AD1BB69DB6AB2
:102F0000012202FA03F3DA432B4B1B6813402A4ACF
:102F10001360BB699A6CBB69DA62BB69DB6AC3F197
:102F20000502BB699A61BB69DB6A01229A40224BA8
:102F30001B681343204A1360BB69DA6A1F491346B2
:102F40009B0013449B000B4404331B687B61BB69EB
:102F50007A699A607B699A68BB69DA607B699B6869
:102F6000BA6904325A60BB691A1D7B699A60BB69F1
:102F7000DA6A13469B0013449B00104A1A44BB694B
:102F80005A61BB69DA6A0D4913469B0013449B00E2
:102F90000B441B68591C094813469B0013449B00B3
:102FA000034419600123FB61FB6918462037BD46C5
:102FB00080BD00BF64060020440700206806002092
:102FC00080B586B000AF78603960364B1B687B6196
:102FD000354B1B680433184600F0ACFA0346002B4F
:102FE0000BD1314B1B68DB6A012202FA03F3DA438F
:102FF0002E4B1B6813402D4A13607B68B3F1FF3FD3
:1030000024D13B68002B21D0294B5B683B61264BC8
:103010001B683A699A60244B1B683A699268DA60C7
:103020003B699B68204A126804325A601E4B1B6839
:103030001A1D3B699A601C4B1B681D4A5A611C4B48
:103040001B6801331A4A136000BF26E07A697B6867
:103050001344FB60144B1B68FA685A60FA687B697A
:103060009A4209D2134B1A680F4B1B680433194656
:10307000104600F025FA10E00F4B1A680A4B1B6847
:1030800004331946104600F01BFA0C4B1B68FA6813
:103090009A4202D2094AFB68136000BF1837BD4646
:1030A00080BD00BF400700206406002044070020C8
:1030B00028070020F8060020F40600205C07002006
:1030C00080B485B000AF78600023FB60764BFB6076
:1030D0007B689B79002B00F0C8807B681B685B09CC
:1030E00003F1007303F502635B0118467B681B68FC
:1030F0005B0903F1007303F502635B011A687B68E7
:103100001B6803F01F03012101FA03F3DB431340A3
:1031100003607B681B685B095A01644B13441846C3
:103120007B681B685B095A01604B13441A687B6813
:103130001B6803F01F03012101FA03F3DB43134073
:1031400003607B681B791A467B681B685B095B011F
:103150001344FA681344FB60FB68FA6812687968E4
:10316000096801F01F01012000FA01F10A431A6009
:103170004D4BFB607B681B685B095A014C4B134449
:1031800018467B681B685B095A01494B13441A684F
:103190007B681B6803F01F03012101FA03F3DB4383
:1031A000134003607B681B685B095A01414B134461
:1031B00018467B681B685B095A013E4B13441A682A
:1031C0007B681B6803F01F03012101FA03F3DB4353
:1031D000134003607B685B79102B2ED17B681B68E2
:1031E0005B095A01324B134418467B681B685B0924
:1031F0005A012F4B13441B687A68126802F01F02B1
:10320000012101FA02F2134303607B681B685B092A
:103210005A01284B134418467B681B685B095A0106
:10322000244B13441B687A68126802F01F020121C4
:1032300001FA02F2134303602FE07B685B791A46C0
:103240007B681B685B095B011344FA681344FB60ED
:10325000FB68FA6812687968096801F01F010120AB
:1032600000FA01F10A431A6017E07B681B791A46DD
:103270007B681B685B095B011344FA681344FB60BD
:10328000FB68FA6811687A68126802F01F02012070
:1032900000FA02F2D2430A401A6000BF1437BD465A
:1032A0005DF8047B704700BF000401400404014046
:1032B000080401400C04014080B483B000AF786082
:1032C0007B685B095A01084B134419467B6803F07D
:1032D0001F03012202FA03F30B6000BF0C37BD4647
:1032E0005DF8047B704700BF1404014080B500AF57
:1032F0001F4A1F4BD3F8883043F47003C2F888305C
:103300001C4A1C4B1B6843F0010313601949194BFD
:103310005A68194B13404B60164A164B1B6823F032
:10332000847323F480331360124A124B1B6823F416
:10333000802313600F4A0F4B5B6823F4FE03536036
:103340000C4A0C4BDB6A23F00F03D3620949094B8B
:103350001A6B0A4B13400B63064B00229A6000F075
:103360000FF8034B4FF000629A6000BF80BD00BFB2
:1033700000ED00E0001002400CC07FF8CCFC00FF24
:1033800080B483B000AF00237B6000233B60334AEE
:10339000324B1B6843F480331360304B1B6803F4DB
:1033A00000333B607B6801337B603B68002B03D1BB
:1033B0007B68B3F5A06FF0D1284B1B6803F4003392
:1033C000002B02D001233B6001E000233B603B68FF
:1033D000012B3CD1224B12221A60204A1F4B5B6802
:1033E00053601E4A1D4B5B6853601C4A1B4B5B6855
:1033F00043F480635360194A184B5B6823F47C13D1
:103400005360164A154B5B6843F4E8135360134A44
:10341000124B1B6843F08073136000BF0F4B1B6897
:1034200003F00073002BF9D00C4A0C4B5B6823F0BF
:1034300003035360094A094B5B6843F0020353607E
:1034400000BF064B5B6803F00C03082BF9D100BFEB
:103450000C37BD465DF8047B704700BF001002408A
:103460000020024080B483B000AF78607B6803F135
:1034700008027B685A607B684FF0FF329A607B6875
:1034800003F108027B68DA607B6803F108027B685D
:103490001A617B6800221A6000BF0C37BD465DF8D8
:1034A000047B704780B483B000AF78607B680022F3
:1034B0001A6100BF0C37BD465DF8047B704700BF42
:1034C00080B485B000AF786039603B681B68BB6032
:1034D000BB68B3F1FF3F03D17B681B69FB600CE065
:1034E0007B680833FB6002E0FB685B68FB60FB689D
:1034F0005B681A68BB689A42F6D9FB685A683B68F1
:103500005A603B685B683A689A603B68FA689A6000
:10351000FB683A685A603B687A681A617B681B6886
:103520005A1C7B681A6000BF1437BD465DF8047BE7
:10353000704700BF80B485B000AF78607B681B69BE
:10354000FB607B685B687A6892689A607B689B68BE
:103550007A6852685A60FB685A687B689A4203D15D
:103560007B689A68FB685A607B6800221A61FB6876
:103570001B685A1EFB681A60FB681B6818461437E4
:10358000BD465DF8047B704780B483B000AF7860BF
:10359000064A7B6843F0BF6343F40033D36000BF47
:1035A0000C37BD465DF8047B704700BF00ED00E0BE
:1035B00080B487B000AF786000237B6100233B615B
:1035C0000F23FB607B68DB78002B3AD0284BDB684D
:1035D000DB4303F4E0631B0A7B617B69C3F10403F3
:1035E0003B61FA687B6922FA03F3FB607B685B78D6
:1035F0001A463B6902FA03F37B617B689B781A46A3
:10360000FB6813407A6913437B617B691B017B6113
:10361000184A7B681B787969C9B213440A4683F853
:103620000023144A7B681B785B09DBB218467B6871
:103630001B7803F01F03012101FA03F342F8203045
:103640000FE00C497B681B785B09DBB218467B688E
:103650001B7803F01F0301229A4000F1200341F878
:10366000232000BF1C37BD465DF8047B704700BFB8
:1036700000ED00E000E100E080B485B000AF7860CC
:1036800039600023FB817B681B88FB817B682D4AA6
:1036900093420FD07B682C4A93420BD07B68B3F1E6
:1036A000804F07D07B68294A934203D07B68284A21
:1036B000934208D1FB8923F07003FB813B685A8851
:1036C000FB891343FB817B68224A93420CD07B68C1
:1036D000214A934208D0FB8923F44073FB813B6865
:1036E0001A89FB891343FB817B68FA891A803B683E
:1036F0005A687B68DA623B681A887B681A857B683F
:10370000104A93420FD07B680F4A93420BD07B68DC
:10371000124A934207D07B68114A934203D07B68D8
:10372000104A934204D13B689B7A9AB27B681A860E
:103730007B6801225A6100BF1437BD465DF8047BE7
:10374000704700BF002C01400034014000040040DD
:1037500000080040001000400014004000400140FC
:10376000004401400048014080B483B000AF78605D
:103770007B684FF0FF325A607B6800221A807B68BA
:1037800000221A817B6800225A807B6800229A728C
:1037900000BF0C37BD465DF8047B704780B483B032
:1037A00000AF78600B46FB70FB78002B08D07B687D
:1037B0001B889BB243F001039AB27B681A8007E032
:1037C0007B681B889BB223F001039AB27B681A8046
:1037D00000BF0C37BD465DF8047B704780B483B0F2
:1037E00000AF78600B467B807B685A684FF68F731A
:1037F00013407A6853607B685A687B881A437B68F9
:103800005A6000BF0C37BD465DF8047B704700BFAF
:1038100080B500AF01214FF08050FCF739FE4FF426
:103820008870FCF70DFE304B00221A602E4B0022F0
:103830005A602D4B4FF400429A602B4B0222DA6003
:10384000294B00221A7428494FF0A040FCF704FFCE
:1038500001214FF0A040FDF77FF802214FF0A0407A
:10386000FDF796F8214B4FF400521A601F4B0022CF
:103870005A601E4B00229A601C4B0022DA601B4BE0
:1038800000221A61194B00225A61184B00229A61DA
:10389000164B03221A7715494FF0A040FCF79AFE09
:1038A00001214FF0A040FCF725FF07230122022150
:1038B0004FF0A040FCF73AFF0723022203214FF00C
:1038C000A040FCF733FF0723032204214FF0A04060
:1038D000FCF72CFF4FF0A040FDF720F84FF0A04080
:1038E000FDF72CF800BF80BDF04300208C43002082
:1038F00080B485B000AFF860B9607A60FB68043BC3
:10390000FB60FB684FF080721A60FB68043BFB6051
:10391000BB6823F00102FB681A60FB68043BFB6094
:103920000C4AFB681A60FB68143BFB607A68FB6812
:103930001A60FB68043BFB60FB686FF002021A60D0
:10394000FB68203BFB60FB6818461437BD465DF8FA
:10395000047B70475939000880B485B000AF00235C
:103960007B60114B1B68B3F1FF3F09D04FF0500350
:1039700083F31188BFF36F8FBFF34F8FBB60FEE7F8
:103980004FF0500383F31188BFF36F8FBFF34F8F56
:10399000FB6000BF7B68002BFCD000BF1437BD4626
:1039A0005DF8047B704700BF20000020000000008D
:1039B000074B19680868B0E8F04F80F30988BFF337
:1039C0006F8F4FF0000080F311887047AFF30080D5
:1039D0006406002000BF00BF08480068006880F34C
:1039E00008884FF0000080F3148862B661B6BFF318
:1039F0004F8FBFF36F8F00DF00BF000008ED00E0C6
:103A000000BF00BF80B588B000AF4C4B1B684C4A6C
:103A1000934209D14FF0500383F31188BFF36F8FA6
:103A2000BFF34F8FFB60FEE7444B1B68454A934250
:103A300009D14FF0500383F31188BFF36F8FBFF3A9
:103A40004F8F3B61FEE7404BFB61FB691B78DBB2AC
:103A5000BB60FB69FF221A70FB691B78DBB2FB714C
:103A6000FB79DBB203F05003DAB2384B1A70384BF3
:103A700007221A6009E0364B1B68013B344A136089
:103A8000FB79DBB25B00DBB2FB71FB79DBB25BB2D3
:103A9000002BF0DB2E4B1B68C3F10703042B09D06E
:103AA0004FF0500383F31188BFF36F8FBFF34F8F35
:103AB0007B61FEE7264B1B68C3F10703042B09D08B
:103AC0004FF0500383F31188BFF36F8FBFF34F8F15
:103AD000BB61FEE71E4B1B681B021D4A13601C4B9B
:103AE0001B6803F4E0631A4A1360BB68DAB2FB692F
:103AF0001A70184A174B1B6843F470031360154A79
:103B0000144B1B6843F07043136000F0D5F8124B60
:103B100000221A6000F0F4F8104A104B1B6843F0C2
:103B200040431360FFF758FFFEF796FEFFF714FFC0
:103B3000002318462037BD4680BD00BF00ED00E0E1
:103B400071C20F4170C20F4100E400E0680700201D
:103B50006C07002020ED00E02000002034EF00E0A2
:103B600080B483B000AF4FF0500383F31188BFF3EC
:103B70006F8FBFF34F8F3B600E4B1B6801330D4AB5
:103B800013600C4B1B68012B0ED10B4B1B68DBB277
:103B9000002B09D04FF0500383F31188BFF36F8FD0
:103BA000BFF34F8F7B60FEE700BF0C37BD465DF86B
:103BB000047B70472000002004ED00E080B483B057
:103BC00000AF114B1B68002B09D14FF0500383F35A
:103BD0001188BFF36F8FBFF34F8F3B60FEE70A4B37
:103BE0001B68013B084A1360074B1B68002B04D17C
:103BF00000237B607B6883F3118800BF0C37BD46D0
:103C00005DF8047B704700BF20000020000000002A
:103C1000EFF30980BFF36F8F154B1A681EF0100F7A
:103C200008BF20ED108A20E9F04F10602DE909004F
:103C30004FF0500080F31188BFF34F8FBFF36F8FA9
:103C4000FEF70AFE4FF0000080F3118809BC1968E6
:103C50000868B0E8F04F1EF0100F08BFB0EC108AF3
:103C600080F30988BFF36F8F704700BFAFF3008008
:103C70006406002000BF00BF80B582B000AF4FF0E7
:103C8000500383F31188BFF36F8FBFF34F8F3B60F7
:103C9000FEF7C4FC0346002B03D0064B4FF08052C6
:103CA0001A6000237B607B6883F3118800BF0837AC
:103CB000BD4680BD04ED00E080B400AF0B4B002298
:103CC0001A600B4B00221A600A4A0B4B1B680B4907
:103CD000A1FB03139B09013B1360044B07221A60ED
:103CE00000BFBD465DF8047B704700BF10E000E0F8
:103CF00018E000E014E000E00C000020D34D62105A
:103D0000DFF80C00016841F47001016070470000A9
:103D100088ED00E000BF00BF80B485B000AFEFF3D6
:103D20000583FB60FB680F2B13D9164AFB6813440D
:103D30001B78FB72144B1B78FA7A9A4209D24FF027
:103D4000500383F31188BFF36F8FBFF34F8F3B6036
:103D5000FEE70E4B1B6803F4E0620D4B1B689A42B2
:103D600009D94FF0500383F31188BFF36F8FBFF36E
:103D70004F8F7B60FEE700BF1437BD465DF8047BC4
:103D8000704700BFF0E300E0680700200CED00E0A2
:103D90006C07002080B586B000AF786039600123E1
:103DA0007B617B683B613B69002B09D14FF050037D
:103DB00083F31188BFF36F8FBFF34F8FBB60FEE7B4
:103DC0003B69002B5AD03B69DB6B002B56D03B691B
:103DD000DB6B4FF0FF32B2FBF3F23B691B6C9A4294
:103DE0004CD3FFF7BDFE3B691A683B69DB6B396951
:103DF000096C01FB03F31A443B699A603B6900229A
:103E00009A633B691A683B695A603B691A683B6967
:103E1000DB6B013B3969096C01FB03F31A443B6915
:103E2000DA603B69FF2283F844203B69FF2283F874
:103E300045203B68002B14D13B691B69002B1AD02D
:103E40003B6910331846FEF7EFFD0346002B12D0F6
:103E5000144B4FF080521A60BFF34F8FBFF36F8F38
:103E600009E03B6910331846FFF7FCFA3B6924333D
:103E70001846FFF7F7FAFFF7A1FE01E000237B6188
:103E80007B69002B09D14FF0500383F31188BFF3F6
:103E90006F8FBFF34F8FFB60FEE77B6918461837C3
:103EA000BD4680BD04ED00E080B58AB002AFF86089
:103EB000B9601346FB710023FB61FB68002B2BD01C
:103EC0004FF0FF32FB68B2FBF3F2BB689A4223D398
:103ED000FB68BA6802FB03F313F1510F1CD8FB68AF
:103EE000BA6802FB03F3BB61BB695033184600F0AC
:103EF00053FDF861FB69002B1BD0FB697B617B697B
:103F000050337B61FA79FB69009313467A69B9688B
:103F1000F86800F013F80CE0FB69002B09D14FF0B2
:103F2000500383F31188BFF36F8FBFF34F8F3B6153
:103F3000FEE7FB6918462037BD4680BD80B584B0DA
:103F400000AFF860B9607A60FB70BB68002B03D1EA
:103F5000BB69BA691A6002E0BB697A681A60BB691A
:103F6000FA68DA63BB69BA681A640121B869FFF7B5
:103F700011FFBB69FA7883F84C2000BF1037BD46AB
:103F800080BD00BF80B58EB000AFF860B9607A60C8
:103F90003B6000237B63FB683B633B6B002B09D1D9
:103FA0004FF0500383F31188BFF36F8FBFF34F8F30
:103FB000FB61FEE7BB68002B03D13B6B1B6C002B46
:103FC00001D1012300E00023002B09D14FF0500361
:103FD00083F31188BFF36F8FBFF34F8F3B62FEE710
:103FE0003B68022B03D13B6BDB6B012B01D101231F
:103FF00000E00023002B09D14FF0500383F3118818
:10400000BFF36F8FBFF34F8F7B62FEE7FEF718FFA2
:104010000346002B02D17B68002B01D1012300E075
:104020000023002B09D14FF0500383F31188BFF315
:104030006F8FBFF34F8FBB62FEE7FFF791FD3B6BC6
:104040009A6B3B6BDB6B9A4202D33B68022B29D104
:104050003A68B968386B00F019FAF8623B6B5B6A32
:10406000002B10D03B6B24331846FEF7DDFC0346D3
:10407000002B13D03F4B4FF080521A60BFF34F8F8D
:10408000BFF36F8F0AE0FB6A002B07D0394B4FF06C
:1040900080521A60BFF34F8FBFF36F8FFFF78EFD13
:1040A000012363E07B68002B03D1FFF787FD00232A
:1040B0005CE07B6B002B06D107F114031846FEF77A
:1040C00089FD01237B63FFF779FDFEF771F9FFF7A7
:1040D00047FD3B6B93F844305BB2B3F1FF3F03D134
:1040E0003B6B002283F844203B6B93F845305BB276
:1040F000B3F1FF3F03D13B6B002283F84520FFF76C
:104100005DFD3A1D07F1140311461846FEF778FDD0
:104110000346002B24D1386B00F0B0FA0346002B85
:1041200018D03B6B10337A6811461846FEF714FC22
:10413000386B00F03BFAFEF749F90346002B7FF499
:104140007CAF0C4B4FF080521A60BFF34F8FBFF320
:104150006F8F72E7386B00F029FAFEF737F96CE7DA
:10416000386B00F023FAFEF731F900231846383790
:10417000BD4680BD04ED00E080B592B000AFF860B0
:10418000B9607A603B60FB683B643B6C002B09D1F3
:104190004FF0500383F31188BFF36F8FBFF34F8F3E
:1041A000BB61FEE7BB68002B03D13B6C1B6C002B93
:1041B00001D1012300E00023002B09D14FF050036F
:1041C00083F31188BFF36F8FBFF34F8FFB61FEE75F
:1041D0003B68022B03D13B6CDB6B012B01D101232C
:1041E00000E00023002B09D14FF0500383F3118826
:1041F000BFF36F8FBFF34F8F3B62FEE7FFF78CFD7E
:10420000EFF311824FF0500383F31188BFF36F8FE8
:10421000BFF34F8F7A627B617B6ABB633B6C9A6BA7
:104220003B6CDB6B9A4202D33B68022B45D13B6C63
:1042300093F8453087F837303B6C9B6B3B633A68AB
:10424000B968386C00F022F997F93730B3F1FF3FC5
:1042500012D13B6C5B6A002B2CD03B6C243318468C
:10426000FEF7E2FB0346002B24D07B68002B21D015
:104270007B6801221A601DE0FEF7C4F9F86297F925
:104280003720FB6A9A4215D297F937307F2B09D134
:104290004FF0500383F31188BFF36F8FBFF34F8F3D
:1042A000FB63FEE797F837300133DBB25AB23B6C61
:1042B00083F8452001237B6401E000237B64BB6B12
:1042C000BB62BB6A83F311887B6C18464837BD46D6
:1042D00080BD00BF80B58CB000AFF860B9607A6077
:1042E0000023FB62FB68BB62BB6A002B09D14FF065
:1042F000500383F31188BFF36F8FBFF34F8FBB6100
:10430000FEE7BB68002B03D1BB6A1B6C002B01D1FD
:10431000012300E00023002B09D14FF0500383F369
:104320001188BFF36F8FBFF34F8FFB61FEE7FEF77E
:1043300087FD0346002B02D17B68002B01D10123AE
:1043400000E00023002B09D14FF0500383F31188C4
:10435000BFF36F8FBFF34F8F3B62FEE7FFF700FCA9
:10436000BB6A9B6B7B627B6A002B1FD0B968B86A03
:1043700000F0F6F87B6A5A1EBB6A9A63BB6A1B6937
:10438000002B0FD0BB6A10331846FEF74DFB0346D7
:10439000002B07D03C4B4FF080521A60BFF34F8F79
:1043A000BFF36F8FFFF70AFC012369E07B68002BE6
:1043B00003D1FFF703FC002362E0FB6A002B06D168
:1043C00007F110031846FEF705FC0123FB62FFF717
:1043D000F5FBFDF7EDFFFFF7C3FBBB6A93F8443035
:1043E0005BB2B3F1FF3F03D1BB6A002283F84420E4
:1043F000BB6A93F845305BB2B3F1FF3F03D1BB6AB0
:10440000002283F84520FFF7D9FB3A1D07F110037E
:1044100011461846FEF7F4FB0346002B23D1B86A79
:1044200000F016F90346002B17D0BB6A24337A68D4
:1044300011461846FEF790FAB86A00F0B7F8FDF793
:10444000C5FF0346002B89D10F4B4FF080521A60F5
:10445000BFF34F8FBFF36F8F80E7B86A00F0A6F805
:10446000FDF7B4FF7AE7B86A00F0A0F8FDF7AEFFF9
:10447000B86A00F0EDF80346002B3FF46FAF00235D
:1044800018463037BD4680BD04ED00E080B586B0EB
:1044900000AFF860B9607A6000237B61FB689B6BBA
:1044A0003B61FB681B6C002B0DD1FB681B68002B6C
:1044B0004DD1FB689B681846FEF7E0FC7861FB680D
:1044C00000229A6043E07B68002B19D1FB68586892
:1044D000FB681B6C1A46B96801F01EFAFB685A6843
:1044E000FB681B6C1A44FB685A60FB685A68FB68DF
:1044F0009B689A422BD3FB681A68FB685A6026E0D7
:10450000FB68D868FB681B6C1A46B96801F004FAAE
:10451000FB68DA68FB681B6C5B421A44FB68DA6074
:10452000FB68DA68FB681B689A4207D2FB689A68E6
:10453000FB681B6C5B421A44FB68DA607B68022BE9
:1045400005D13B69002B02D03B69013B3B613B69D4
:104550005A1CFB689A637B6918461837BD4680BDB4
:1045600080B582B000AF786039607B681B6C002B2F
:1045700018D07B68DA687B681B6C1A447B68DA6049
:104580007B68DA687B689B689A4203D37B681A6809
:104590007B68DA607B68D9687B681B6C1A46386870
:1045A00001F0BAF900BF0837BD4680BD80B584B0C0
:1045B00000AF7860FFF7D4FA7B6893F84530FB735F
:1045C00011E07B685B6A002B12D07B6824331846AD
:1045D000FEF72AFA0346002B01D0FEF775FBFB7BA2
:1045E000013BDBB2FB7397F90F30002BE9DC00E0F5
:1045F00000BF7B68FF2283F84520FFF7DFFAFFF753
:10460000AFFA7B6893F84430BB7311E07B681B6999
:10461000002B12D07B6810331846FEF705FA0346CC
:10462000002B01D0FEF750FBBB7B013BDBB2BB7321
:1046300097F90E30002BE9DC00E000BF7B68FF2219
:1046400083F84420FFF7BAFA00BF1037BD4680BD9B
:1046500080B584B000AF7860FFF782FA7B689B6B0F
:10466000002B02D10123FB6001E00023FB60FFF778
:10467000A5FAFB6818461037BD4680BD80B584B0EA
:1046800000AF7860FFF76CFA7B689A6B7B68DB6B36
:104690009A4202D10123FB6001E00023FB60FFF797
:1046A0008DFAFB6818461037BD4680BD80B487B0D0
:1046B00000AF7860396000233B617B68002B09D133
:1046C0004FF0500383F31188BFF36F8FBFF34F8F09
:1046D000FB60FEE73B68002B24D000237B611EE0DB
:1046E000184A7B69DB0013445A687B689A4205D1FB
:1046F0007B69DB00134A13443B6113E03B69002BE9
:104700000AD1104A7B6952F83330002B04D17B69FF
:10471000DB000C4A13443B617B6901337B617B699D
:10472000072BDDD93B69002B05D03B693A681A603D
:104730003B697A685A6000BF1C37BD465DF8047B50
:10474000704700BF0444002080B586B000AFF86019
:10475000B9607A60FB687B61FFF702FA7B6993F8C6
:1047600044305BB2B3F1FF3F03D17B69002283F891
:1047700044207B6993F845305BB2B3F1FF3F03D12E
:104780007B69002283F84520FFF718FA7B699B6B51
:10479000002B06D17B6924337A68B9681846FEF786
:1047A000FFF87869FFF702FF00BF1837BD4680BDEC
:1047B000002103E00A4B5B584350043109480A4B7F
:1047C00042189A42F6D3094A02E0002342F8043B19
:1047D000074B9A42F9D3FEF789FDFCF767FE704755
:1047E000145C00080000002024060020240600209D
:1047F0004C440020FEE7000090B484B000AF0346B4
:104800000A46FB711346BB710023FB60BB7903F0C2
:1048100003039B000F2202FA03F3FB601649BB79E6
:104820009B08DBB21846144ABB799B08DBB2023303
:1048300052F82320FB68DB431A40831C41F82320F5
:104840000D48BB799B08DBB21C460B4ABB799B0821
:10485000DBB2023352F82320F979BB7903F003036A
:104860009B0001FA03F31A43A31C40F8232000BF66
:104870001037BD4690BC70470000014080B500AFC6
:1048800001210220FBF704FE3948FCF7DFFE394B1B
:10489000394A1A60394A374B5A60364B10229A60AF
:1048A000344B71229A81334B00221A61314B8022A2
:1048B0005A61304B4FF480729A612E4B4FF48062F4
:1048C000DA612C4B20221A622A4B00225A62294BB1
:1048D00000229A6227492648FCF774FF01212448E8
:1048E000FCF7B0FF2648FCF7B1FE224B254A1A60C0
:1048F000254A204B5A601F4B71229A811D4920483E
:10490000FCF760FF01211E48FCF79CFF01210120FC
:10491000FBF7BEFD174B1D4A1A601D4A154B5A6026
:10492000144B00229A60134B03229A81114B0022F0
:104930001A61104B80225A610E4B4FF480729A61BB
:104940000C4B4FF48062DA610A4B20221A62094B49
:1049500000225A62074B00229A6206490D48FCF772
:1049600031FF01210B48FCF76DFF00BF80BD00BF88
:1049700030040240C443002008740040240000209A
:10498000440402401474004008010020400000501C
:10499000444400200800024080B58AB000AF78602F
:1049A0000023FB61FDF704FD494B1B68002B04D17C
:1049B00000F0FAF8464B01221A607B68002B13D0F6
:1049C00008231A467B6803F00703D31A08337B6178
:1049D0007B69DA437B689A4204D37A687B69134423
:1049E0007B6001E000237B607B68002B63DB7B68DE
:1049F000002B60D0374B1B687A689A425BD8364BE5
:104A00003B62354B1B687B6204E07B6A3B627B6ADE
:104A10001B687B627B6A5A687B689A4203D27B6A16
:104A20001B68002BF1D17B6A2C4A934243D03B6A2E
:104A30001B6808221344FB617B6A1A683B6A1A6090
:104A40007B6A5A687B68D31A08225200934222D9A3
:104A50007A6A7B6813443B617B6A5A687B68D21A26
:104A60003B695A607B6A7A685A603B695B68FB60A5
:104A7000194BBB6102E0BB691B68BB61BB691B686A
:104A80005A68FB689A42F6D3BB691A683B691A6098
:104A9000BB693A691A600F4B1A687B6A5B68D31A64
:104AA0000C4A13607B6A5B6843F000427B6A5A6081
:104AB0007B6A00221A60FDF789FCFB69002B01D19B
:104AC000FCF7B2FDFB6918462837BD4680BD00BF24
:104AD00080430020EC010020704300207843002038
:104AE00080B588B000AF78607B68BB617B68002BC5
:104AF00051D008235B42BA691344BB61BB697B6137
:104B00007B695B68002B09DB4FF0500383F311884E
:104B1000BFF36F8FBFF34F8FBB60FEE77B691B68EE
:104B2000002B09D04FF0500383F31188BFF36F8F30
:104B3000BFF34F8FFB60FEE77B695B68002B2ADACF
:104B40007B691B68002B26D17B695B6823F00042E0
:104B50007B695A60FDF72CFC7B695B683B61104BFD
:104B6000FB6102E0FB691B68FB61FB691B685A681B
:104B70003B699A42F6D3FB691A687B691A60FB6944
:104B80007A691A607B695A68064B1B681344054AA8
:104B90001360FDF71BFC00BF2037BD4680BD00BF82
:104BA00070430020EC01002080B483B000AF104BB4
:104BB00023F007037B600F4A7B6813600D4B0022D4
:104BC0005A600D4B43F6F8325A600B4B00221A60C4
:104BD0007B683B603B6843F6F8325A603B68064AA4
:104BE0001A6000BF0C37BD465DF8047B704700BFFC
:104BF00077070020704300207843002080B485B000
:104C000000AF786039600023FB600023BB60144B69
:104C10001B68FB6040F6FE727B6802FA03F3DB431D
:104C2000FA681340FB603B681A683B685B681A438C
:104C30003B689B681A433B68DB681343BB60BA68F8
:104C40007B6802FA03F3FA681343FB60044AFB68CB
:104C5000136000BF1437BD465DF8047B704700BF8A
:104C60000074004080B483B000AF78600B46FB70E6
:104C7000FB78002B09D00D490C4B1A6801207B688A
:104C800000FA03F313430B6009E00849074B1A6865
:104C900001207B6800FA03F3DB4313400B6000BF85
:104CA0000C37BD465DF8047B704700BF00740040C0
:104CB00080B483B000AF78600B46FB70FB78002BAC
:104CC0000AD00E490D4B1A684FF480507B6800FAE9
:104CD00003F313430B600AE00849084B1A684FF4CA
:104CE00080507B6800FA03F3DB4313400B6000BF86
:104CF0000C37BD465DF8047B704700BF0074004070
:104D000080B500AFFBF78CFA0020FBF7DBFA05203B
:104D1000FBF7C4FA4FF4E0114FF48030FBF7E2FAEE
:104D20000020FBF737FB4FF48060FBF74FFB4FF49D
:104D30008060FBF767FB0120FBF7F0FA00BF19204A
:104D4000FBF706FC0346002BF9D00220FBF7F6FA2E
:104D500000BFFBF70FFB0346082BFAD100BF80BD55
:104D600080B500AF45F25550FBF70EFA0320FBF774
:104D70001BFA4FF4A470FBF727FAFBF735FAFBF7A1
:104D800041FA00BF80BD00BF2DE9F0432DED028B3D
:104D90008BB055EC104B00F057F8294BB0EE408A21
:104DA000F0EE608A93F90060731C12D022462B4605
:104DB0002046294600F06CFD074650B94FF0000828
:104DC0004FF000092046294642464B4600F038FD88
:104DD00040B9B0EE480AF0EE680A0BB0BDEC028BA9
:104DE000BDE8F083174B08970122CDE90445CDE9D2
:104DF00002458DE80C00B6B142464B464046494656
:104E000000F0D6FB022ECDE906010ED100F07EFDAA
:104E100021230360089B73B99DED060B0BB0BDEC1D
:104E2000028BBDE8F083CDE90689684600F0DCF826
:104E30000028EFD1EAE700F069FD089B0360EBE78B
:104E4000F0010020085C00082DE9F041654955ECAF
:104E5000104B0E462940B14200F09780002D2B46A2
:104E600010EE102A74DD2F157FD0A7F2FF37C3F3A1
:104E70001303F90743F4801365D403EBD2710026C2
:104E80000B447F105200B64616204FF400110EEB73
:104E900001049C424FEAD2754FEA420203DC1B1B1D
:104EA00004EB010E0E44013805EB43034FEA5101B8
:104EB000EDD1844620244FF0004109E020D003EBDF
:104EC000D275013C4FEA51012B444FEA420220D0F7
:104ED0009E4501EB0C05F1DA002D05EB010C09DB19
:104EE000F0469542CEEB030300D9013B521B084428
:104EF000C646E4E7BCF1000FF2DB0EF10108F0E773
:104F000095421ED8002D05EB010C50DB984600237E
:104F1000ECE7134304D0421C4DD000F001031844C9
:104F200040087110F30701F17F5101F5001148BFEE
:104F300040F0004001EB0753024643EC102BBDE864
:104F4000F0817346BBE75B0003EBD273520094E73A
:104F500025F00041214328D0ADBB2F46D30A153F91
:104F60005205002BFAD0DD0228D4002100E00146D2
:104F70005B00DC0201F10100F9D5C0F1200422FA46
:104F800004F423437F1A82406FE710EE102A2B4669
:104F900010EE100A294600F0E1F922462B4600F0F7
:104FA0002BF841EC100BBDE8F081BDE8F081BCF1BD
:104FB000000FA2DAAAE701362046B2E720244FF01C
:104FC000FF310020DBE710EE102A2B462046294651
:104FD00000F010F802460B4600F0EAFA41EC100B24
:104FE000BDE8F0810000F07F0020704781F00041B3
:104FF00002E000BF83F0004330B54FEA41044FEABE
:10500000430594EA050F08BF90EA020F1FBF54EA58
:10501000000C55EA020C7FEA645C7FEA655C00F0F4
:10502000E2804FEA5454D4EB5555B8BF6D420CDDC5
:105030002C4480EA020281EA030382EA000083EA48
:10504000010180EA020281EA0303362D88BF30BDE8
:1050500011F0004F4FEA01314FF4801C4CEA11313E
:1050600002D0404261EB410113F0004F4FEA03339D
:105070004CEA133302D0524263EB430394EA050F28
:1050800000F0A780A4F10104D5F1200E0DDB02FA97
:105090000EFC22FA05F2801841F1000103FA0EF22B
:1050A000801843FA05F359410EE0A5F120050EF1F1
:1050B000200E012A03FA0EFC28BF4CF0020C43FA22
:1050C00005F3C01851EBE37101F0004507D54FF02F
:1050D000000EDCF1000C7EEB00006EEB0101B1F57F
:1050E000801F1BD3B1F5001F0CD349085FEA3000C5
:1050F0004FEA3C0C04F101044FEA445212F5800FD0
:1051000080F09A80BCF1004F08BF5FEA500C50F16C
:10511000000041EB045141EA050130BD5FEA4C0C4F
:10512000404141EB010111F4801FA4F10104E9D1D8
:1051300091F0000F04BF01460020B1FA81F308BFCF
:105140002033A3F10B03B3F120020CDA0C3208DD9B
:1051500002F1140CC2F10C0201FA0CF021FA02F176
:105160000CE002F11402D8BFC2F1200C01FA02F1E6
:1051700020FA0CFCDCBF41EA0C019040E41AA2BF0B
:1051800001EB0451294330BD6FEA04041F3C1CDAD3
:105190000C340EDC04F11404C4F1200220FA04F0F3
:1051A00001FA02F340EA030021FA04F345EA03019D
:1051B00030BDC4F10C04C4F1200220FA02F001FA5F
:1051C00004F340EA0300294630BD21FA04F02946E1
:1051D00030BD94F0000F83F4801306BF81F480117A
:1051E0000134013D4EE77FEA645C18BF7FEA655CED
:1051F00029D094EA050F08BF90EA020F05D054EABF
:10520000000C04BF1946104630BD91EA030F1EBFC3
:105210000021002030BD5FEA545C05D140004941C7
:1052200028BF41F0004130BD14F580043CBF01F5BA
:10523000801130BD01F0004545F0FE4141F47001A0
:105240004FF0000030BD7FEA645C1ABF194610467B
:105250007FEA655C1CBF0B46024650EA013406BF7C
:1052600052EA033591EA030F41F4002130BD00BF3B
:1052700090F0000F04BF0021704730B54FF48064F8
:1052800004F132044FF000054FF0000150E700BF79
:1052900090F0000F04BF0021704730B54FF48064D8
:1052A00004F1320410F0004548BF40424FF00001C5
:1052B0003EE700BF42004FEAE2014FEA31014FEA08
:1052C00002701FBF12F07F4393F07F4F81F0605157
:1052D000704792F0000F14BF93F07F4F704730B5C6
:1052E0004FF4607401F0004521F0004120E700BF59
:1052F00050EA010208BF704730B54FF000050AE0E0
:1053000050EA010208BF704730B511F0004502D5E0
:10531000404261EB41014FF4806404F132045FEAE2
:10532000915C3FF4DCAE4FF003025FEADC0C18BF87
:1053300003325FEADC0C18BF033202EBDC02C2F17D
:10534000200300FA03FC20FA02F001FA03FE40EA0F
:105350000E0021FA02F11444C1E600BF70B54FF00F
:10536000FF0C4CF4E06C1CEA11541DBF1CEA1355F1
:1053700094EA0C0F95EA0C0F00F0DEF82C4481EA59
:10538000030621EA4C5123EA4C5350EA013518BF79
:1053900052EA033541F4801143F4801338D0A0FB66
:1053A00002CE4FF00005E1FB02E506F00042E0FB13
:1053B00003E54FF00006E1FB03569CF0000F18BF19
:1053C0004EF0010EA4F1FF04B6F5007F64F54074C1
:1053D00004D25FEA4E0E6D4146EB060642EAC62154
:1053E00041EA55514FEAC52040EA5E504FEACE2EC1
:1053F000B4F1FD0C88BFBCF5E06F1ED8BEF1004FC4
:1054000008BF5FEA500E50F1000041EB045170BD3F
:1054100006F0004646EA010140EA020081EA030183
:10542000B4EB5C04C2BFD4EB0C0541EA045170BD7F
:1054300041F480114FF0000E013C00F3AB8014F1F9
:10544000360FDEBF002001F0004170BDC4F1000442
:10545000203C35DA0C341BDC04F11404C4F12005C3
:1054600000FA05F320FA04F001FA05F240EA02001E
:1054700001F0004221F0004110EBD37021FA04F654
:1054800042EB06015EEA430E08BF20EAD37070BD0E
:10549000C4F10C04C4F1200500FA04F320FA05F06D
:1054A00001FA04F240EA020001F0004110EBD3706F
:1054B00041F100015EEA430E08BF20EAD37070BDDF
:1054C000C4F1200500FA05F24EEA020E20FA04F3B8
:1054D00001FA05F243EA020321FA04F001F0004167
:1054E00021FA04F220EA020000EBD3705EEA430ED8
:1054F00008BF20EAD37070BD94F0000F0FD101F007
:105500000046400041EB010111F4801F08BF013C3F
:10551000F7D041EA060195F0000F18BF704703F07D
:105520000046520043EB030313F4801F08BF013D04
:10553000F7D043EA0603704794EA0C0F0CEA1355C0
:1055400018BF95EA0C0F0CD050EA410618BF52EA7A
:105550004306D1D181EA030101F000414FF0000080
:1055600070BD50EA410606BF1046194652EA43068E
:1055700019D094EA0C0F02D150EA013613D195EA02
:105580000C0F05D152EA03361CBF104619460AD14A
:1055900081EA030101F0004141F0FE4141F4700154
:1055A0004FF0000070BD41F0FE4141F4780170BD44
:1055B00070B54FF0FF0C4CF4E06C1CEA11541DBFA9
:1055C0001CEA135594EA0C0F95EA0C0F00F0A7F8AB
:1055D000A4EB050481EA030E52EA03354FEA0131D8
:1055E00000F088804FEA03334FF0805545EA1313EB
:1055F00043EA12634FEA022245EA111545EA1065B3
:105600004FEA00260EF000419D4208BF964244F149
:10561000FD0404F5407402D25B084FEA3202B61A68
:1056200065EB03055B084FEA32024FF480104FF43C
:10563000002CB6EB020E75EB030E22BFB61A7546B0
:1056400040EA0C005B084FEA3202B6EB020E75EB43
:10565000030E22BFB61A754640EA5C005B084FEAAB
:105660003202B6EB020E75EB030E22BFB61A754678
:1056700040EA9C005B084FEA3202B6EB020E75EB83
:10568000030E22BFB61A754640EADC0055EA060E44
:1056900018D04FEA051545EA16754FEA06164FEA87
:1056A000C30343EA52734FEAC2025FEA1C1CC0D133
:1056B00011F4801F0BD141EA00014FF000004FF0C0
:1056C000004CB6E711F4801F04BF01430020B4F181
:1056D000FD0C88BFBCF5E06F3FF6AFAEB5EB030C39
:1056E00004BFB6EB020C5FEA500C50F1000041EB36
:1056F000045170BD0EF0004E4EEA113114EB5C0403
:10570000C2BFD4EB0C0541EA045170BD41F48011D5
:105710004FF0000E013C90E645EA060E8DE60CEADD
:10572000135594EA0C0F08BF95EA0C0F3FF43BAFFA
:1057300094EA0C0F0AD150EA01347FF434AF95EAB1
:105740000C0F7FF425AF104619462CE795EA0C0F95
:1057500006D152EA03353FF4FDAE1046194622E762
:1057600050EA410618BF52EA43067FF4C5AE50EA3C
:1057700041047FF40DAF52EA43057FF4EBAE12E72C
:105780004FF0FF3C06E000BF4FF0010C02E000BF0D
:105790004FF0010C4DF804CD4FEA410C7FEA6C5CF0
:1057A0004FEA430C18BF7FEA6C5C1BD001B050EA93
:1057B000410C0CBF52EA430C91EA030F02BF90EA7E
:1057C000020F0020704710F1000F91EA030F58BF3D
:1057D000994208BF90422CBFD8176FEAE37040F09F
:1057E000010070474FEA410C7FEA6C5C02D150EA3D
:1057F000013C07D14FEA430C7FEA6C5CD6D152EAF8
:10580000033CD3D05DF8040B704700BF84461046BC
:1058100062468C461946634600E000BF01B5FFF7BB
:10582000B7FF002848BF10F1000F01BD4DF808ED8B
:10583000FFF7F4FF0CBF012000205DF808FB00BF5C
:105840004DF808EDFFF7EAFF34BF012000205DF8B6
:1058500008FB00BF4DF808EDFFF7E0FF94BF012003
:1058600000205DF808FB00BF4DF808EDFFF7CEFF04
:1058700094BF012000205DF808FB00BF4DF808ED43
:10588000FFF7C4FF34BF012000205DF808FB00BF14
:105890004FEA410C7FEA6C5C02D150EA013C0AD12C
:1058A0004FEA430C7FEA6C5C02D152EA033C02D11E
:1058B0004FF0000070474FF0010070474FEA41027F
:1058C00012F5001215D211D56FF47873B3EB625252
:1058D00012D94FEAC12343F0004343EA505311F079
:1058E000004F23FA02F018BF404270474FF000000B
:1058F000704750EA013005D111F0004008BF6FF049
:10590000004070474FF00000704700BF014B18681F
:10591000704700BF20060020844641EA000313F0D0
:1059200003036DD1403A41D351F8043B40F8043BA6
:1059300051F8043B40F8043B51F8043B40F8043B69
:1059400051F8043B40F8043B51F8043B40F8043B59
:1059500051F8043B40F8043B51F8043B40F8043B49
:1059600051F8043B40F8043B51F8043B40F8043B39
:1059700051F8043B40F8043B51F8043B40F8043B29
:1059800051F8043B40F8043B51F8043B40F8043B19
:1059900051F8043B40F8043B51F8043B40F8043B09
:1059A00051F8043B40F8043B403ABDD2303211D3A9
:1059B00051F8043B40F8043B51F8043B40F8043BE9
:1059C00051F8043B40F8043B51F8043B40F8043BD9
:1059D000103AEDD20C3205D351F8043B40F8043BA9
:1059E000043AF9D2043208D0D2071CBF11F8013BA7
:1059F00000F8013B01D30B8803806046704700BF6D
:105A0000082A13D38B078DD010F003038AD0C3F17B
:105A10000403D21ADB071CBF11F8013B00F8013B5D
:105A200080D331F8023B20F8023B7BE7043AD9D31C
:105A3000013A11F8013B00F8013BF9D20B780370F1
:105A40004B7843708B7883706046704770B48407DE
:105A500046D0541E002A41D0CDB2034602E0621E59
:105A6000E4B3144603F8015B9A07F8D1032C2ED94E
:105A7000CDB245EA05250F2C45EA054519D903F1B4
:105A800010022646103E0F2E42F8105C42F80C5CC5
:105A900042F8085C42F8045C02F11002F2D8A4F16A
:105AA000100222F00F0204F00F041032032C1344F2
:105AB0000DD91E462246043A032A46F8045BFAD85A
:105AC000221F22F003020432134404F003042CB119
:105AD000C9B21C4403F8011BA342FBD170BC704740
